{
  "abi": [
    {
      "inputs": [],
      "stateMutability": "nonpayable",
      "type": "constructor"
    },
    {
      "anonymous": false,
      "inputs": [
        {
          "indexed": true,
          "internalType": "address",
          "name": "account",
          "type": "address"
        },
        {
          "indexed": true,
          "internalType": "address",
          "name": "operator",
          "type": "address"
        },
        {
          "indexed": false,
          "internalType": "bool",
          "name": "approved",
          "type": "bool"
        }
      ],
      "name": "ApprovalForAll",
      "type": "event"
    },
    {
      "anonymous": false,
      "inputs": [
        {
          "indexed": true,
          "internalType": "bytes32",
          "name": "role",
          "type": "bytes32"
        },
        {
          "indexed": true,
          "internalType": "bytes32",
          "name": "previousAdminRole",
          "type": "bytes32"
        },
        {
          "indexed": true,
          "internalType": "bytes32",
          "name": "newAdminRole",
          "type": "bytes32"
        }
      ],
      "name": "RoleAdminChanged",
      "type": "event"
    },
    {
      "anonymous": false,
      "inputs": [
        {
          "indexed": true,
          "internalType": "bytes32",
          "name": "role",
          "type": "bytes32"
        },
        {
          "indexed": true,
          "internalType": "address",
          "name": "account",
          "type": "address"
        },
        {
          "indexed": true,
          "internalType": "address",
          "name": "sender",
          "type": "address"
        }
      ],
      "name": "RoleGranted",
      "type": "event"
    },
    {
      "anonymous": false,
      "inputs": [
        {
          "indexed": true,
          "internalType": "bytes32",
          "name": "role",
          "type": "bytes32"
        },
        {
          "indexed": true,
          "internalType": "address",
          "name": "account",
          "type": "address"
        },
        {
          "indexed": true,
          "internalType": "address",
          "name": "sender",
          "type": "address"
        }
      ],
      "name": "RoleRevoked",
      "type": "event"
    },
    {
      "anonymous": false,
      "inputs": [
        {
          "indexed": false,
          "internalType": "string",
          "name": "_ipfsID",
          "type": "string"
        },
        {
          "indexed": false,
          "internalType": "uint256",
          "name": "_tokenID",
          "type": "uint256"
        },
        {
          "indexed": false,
          "internalType": "uint256",
          "name": "_reward",
          "type": "uint256"
        }
      ],
      "name": "BountyCancelled",
      "type": "event"
    },
    {
      "anonymous": false,
      "inputs": [
        {
          "indexed": false,
          "internalType": "string",
          "name": "_ipfsID",
          "type": "string"
        },
        {
          "indexed": false,
          "internalType": "uint256",
          "name": "_tokenID",
          "type": "uint256"
        },
        {
          "indexed": false,
          "internalType": "uint256",
          "name": "_reward",
          "type": "uint256"
        }
      ],
      "name": "BountyClaimed",
      "type": "event"
    },
    {
      "anonymous": false,
      "inputs": [
        {
          "indexed": false,
          "internalType": "string",
          "name": "_ipfsID",
          "type": "string"
        },
        {
          "indexed": false,
          "internalType": "uint256",
          "name": "_tokenID",
          "type": "uint256"
        },
        {
          "indexed": false,
          "internalType": "uint256",
          "name": "_reward",
          "type": "uint256"
        }
      ],
      "name": "BountyCompleted",
      "type": "event"
    },
    {
      "anonymous": false,
      "inputs": [
        {
          "indexed": false,
          "internalType": "string",
          "name": "_ipfsID",
          "type": "string"
        },
        {
          "indexed": false,
          "internalType": "uint256",
          "name": "_tokenID",
          "type": "uint256"
        },
        {
          "indexed": false,
          "internalType": "uint256",
          "name": "_reward",
          "type": "uint256"
        }
      ],
      "name": "BountyCreated",
      "type": "event"
    },
    {
      "anonymous": false,
      "inputs": [
        {
          "indexed": true,
          "internalType": "address",
          "name": "operator",
          "type": "address"
        },
        {
          "indexed": true,
          "internalType": "address",
          "name": "from",
          "type": "address"
        },
        {
          "indexed": true,
          "internalType": "address",
          "name": "to",
          "type": "address"
        },
        {
          "indexed": false,
          "internalType": "uint256[]",
          "name": "ids",
          "type": "uint256[]"
        },
        {
          "indexed": false,
          "internalType": "uint256[]",
          "name": "values",
          "type": "uint256[]"
        }
      ],
      "name": "TransferBatch",
      "type": "event"
    },
    {
      "anonymous": false,
      "inputs": [
        {
          "indexed": true,
          "internalType": "address",
          "name": "operator",
          "type": "address"
        },
        {
          "indexed": true,
          "internalType": "address",
          "name": "from",
          "type": "address"
        },
        {
          "indexed": true,
          "internalType": "address",
          "name": "to",
          "type": "address"
        },
        {
          "indexed": false,
          "internalType": "uint256",
          "name": "id",
          "type": "uint256"
        },
        {
          "indexed": false,
          "internalType": "uint256",
          "name": "value",
          "type": "uint256"
        }
      ],
      "name": "TransferSingle",
      "type": "event"
    },
    {
      "anonymous": false,
      "inputs": [
        {
          "indexed": false,
          "internalType": "string",
          "name": "value",
          "type": "string"
        },
        {
          "indexed": true,
          "internalType": "uint256",
          "name": "id",
          "type": "uint256"
        }
      ],
      "name": "URI",
      "type": "event"
    },
    {
      "inputs": [],
      "name": "CONTRACTOR_ROLE",
      "outputs": [
        {
          "internalType": "bytes32",
          "name": "",
          "type": "bytes32"
        }
      ],
      "stateMutability": "view",
      "type": "function"
    },
    {
      "inputs": [],
      "name": "DEFAULT_ADMIN_ROLE",
      "outputs": [
        {
          "internalType": "bytes32",
          "name": "",
          "type": "bytes32"
        }
      ],
      "stateMutability": "view",
      "type": "function"
    },
    {
      "inputs": [],
      "name": "EMPLOYER_ROLE",
      "outputs": [
        {
          "internalType": "bytes32",
          "name": "",
          "type": "bytes32"
        }
      ],
      "stateMutability": "view",
      "type": "function"
    },
    {
      "inputs": [
        {
          "internalType": "string",
          "name": "ipfsID",
          "type": "string"
        },
        {
          "internalType": "address",
          "name": "contractor",
          "type": "address"
        }
      ],
      "name": "approveCompletedBounty",
      "outputs": [],
      "stateMutability": "nonpayable",
      "type": "function"
    },
    {
      "inputs": [
        {
          "internalType": "address",
          "name": "account",
          "type": "address"
        },
        {
          "internalType": "uint256",
          "name": "id",
          "type": "uint256"
        }
      ],
      "name": "balanceOf",
      "outputs": [
        {
          "internalType": "uint256",
          "name": "",
          "type": "uint256"
        }
      ],
      "stateMutability": "view",
      "type": "function"
    },
    {
      "inputs": [
        {
          "internalType": "address[]",
          "name": "accounts",
          "type": "address[]"
        },
        {
          "internalType": "uint256[]",
          "name": "ids",
          "type": "uint256[]"
        }
      ],
      "name": "balanceOfBatch",
      "outputs": [
        {
          "internalType": "uint256[]",
          "name": "",
          "type": "uint256[]"
        }
      ],
      "stateMutability": "view",
      "type": "function"
    },
    {
      "inputs": [
        {
          "internalType": "string",
          "name": "ipfsID",
          "type": "string"
        }
      ],
      "name": "claimFunds",
      "outputs": [],
      "stateMutability": "nonpayable",
      "type": "function"
    },
    {
      "inputs": [
        {
          "internalType": "string",
          "name": "ipfsID",
          "type": "string"
        }
      ],
      "name": "claimBounty",
      "outputs": [],
      "stateMutability": "nonpayable",
      "type": "function"
    },
    {
      "inputs": [
        {
          "internalType": "string",
          "name": "ipfsID",
          "type": "string"
        }
      ],
      "name": "completeBounty",
      "outputs": [],
      "stateMutability": "nonpayable",
      "type": "function"
    },
    {
      "inputs": [
        {
          "internalType": "string",
          "name": "ipfsID",
          "type": "string"
        },
        {
          "internalType": "address",
          "name": "contractor",
          "type": "address"
        }
      ],
      "name": "createPrivateBounty",
      "outputs": [],
      "stateMutability": "payable",
      "type": "function"
    },
    {
      "inputs": [
        {
          "internalType": "string",
          "name": "ipfsID",
          "type": "string"
        }
      ],
      "name": "createBounty",
      "outputs": [],
      "stateMutability": "payable",
      "type": "function"
    },
    {
      "inputs": [
        {
          "internalType": "string",
          "name": "ipfsID",
          "type": "string"
        }
      ],
      "name": "getClaimers",
      "outputs": [
        {
          "internalType": "address[]",
          "name": "",
          "type": "address[]"
        }
      ],
      "stateMutability": "view",
      "type": "function"
    },
    {
      "inputs": [
        {
          "internalType": "bytes32",
          "name": "role",
          "type": "bytes32"
        }
      ],
      "name": "getRoleAdmin",
      "outputs": [
        {
          "internalType": "bytes32",
          "name": "",
          "type": "bytes32"
        }
      ],
      "stateMutability": "view",
      "type": "function"
    },
    {
      "inputs": [
        {
          "internalType": "string",
          "name": "ipfsID",
          "type": "string"
        }
      ],
      "name": "getTokenID",
      "outputs": [
        {
          "internalType": "uint256",
          "name": "",
          "type": "uint256"
        }
      ],
      "stateMutability": "view",
      "type": "function"
    },
    {
      "inputs": [
        {
          "internalType": "bytes32",
          "name": "role",
          "type": "bytes32"
        },
        {
          "internalType": "address",
          "name": "account",
          "type": "address"
        }
      ],
      "name": "grantRole",
      "outputs": [],
      "stateMutability": "nonpayable",
      "type": "function"
    },
    {
      "inputs": [],
      "name": "grantRoleContractor",
      "outputs": [],
      "stateMutability": "nonpayable",
      "type": "function"
    },
    {
      "inputs": [],
      "name": "grantRoleEmployer",
      "outputs": [],
      "stateMutability": "nonpayable",
      "type": "function"
    },
    {
      "inputs": [
        {
          "internalType": "bytes32",
          "name": "role",
          "type": "bytes32"
        },
        {
          "internalType": "address",
          "name": "account",
          "type": "address"
        }
      ],
      "name": "hasRole",
      "outputs": [
        {
          "internalType": "bool",
          "name": "",
          "type": "bool"
        }
      ],
      "stateMutability": "view",
      "type": "function"
    },
    {
      "inputs": [
        {
          "internalType": "address",
          "name": "account",
          "type": "address"
        },
        {
          "internalType": "address",
          "name": "operator",
          "type": "address"
        }
      ],
      "name": "isApprovedForAll",
      "outputs": [
        {
          "internalType": "bool",
          "name": "",
          "type": "bool"
        }
      ],
      "stateMutability": "view",
      "type": "function"
    },
    {
      "inputs": [
        {
          "internalType": "bytes32",
          "name": "role",
          "type": "bytes32"
        },
        {
          "internalType": "address",
          "name": "account",
          "type": "address"
        }
      ],
      "name": "renounceRole",
      "outputs": [],
      "stateMutability": "nonpayable",
      "type": "function"
    },
    {
      "inputs": [
        {
          "internalType": "bytes32",
          "name": "role",
          "type": "bytes32"
        },
        {
          "internalType": "address",
          "name": "account",
          "type": "address"
        }
      ],
      "name": "revokeRole",
      "outputs": [],
      "stateMutability": "nonpayable",
      "type": "function"
    },
    {
      "inputs": [],
      "name": "revokeRoleContractor",
      "outputs": [],
      "stateMutability": "nonpayable",
      "type": "function"
    },
    {
      "inputs": [],
      "name": "revokeRoleEmployer",
      "outputs": [],
      "stateMutability": "nonpayable",
      "type": "function"
    },
    {
      "inputs": [
        {
          "internalType": "address",
          "name": "from",
          "type": "address"
        },
        {
          "internalType": "address",
          "name": "to",
          "type": "address"
        },
        {
          "internalType": "uint256[]",
          "name": "ids",
          "type": "uint256[]"
        },
        {
          "internalType": "uint256[]",
          "name": "amounts",
          "type": "uint256[]"
        },
        {
          "internalType": "bytes",
          "name": "data",
          "type": "bytes"
        }
      ],
      "name": "safeBatchTransferFrom",
      "outputs": [],
      "stateMutability": "nonpayable",
      "type": "function"
    },
    {
      "inputs": [
        {
          "internalType": "address",
          "name": "from",
          "type": "address"
        },
        {
          "internalType": "address",
          "name": "to",
          "type": "address"
        },
        {
          "internalType": "uint256",
          "name": "id",
          "type": "uint256"
        },
        {
          "internalType": "uint256",
          "name": "amount",
          "type": "uint256"
        },
        {
          "internalType": "bytes",
          "name": "data",
          "type": "bytes"
        }
      ],
      "name": "safeTransferFrom",
      "outputs": [],
      "stateMutability": "nonpayable",
      "type": "function"
    },
    {
      "inputs": [
        {
          "internalType": "address",
          "name": "operator",
          "type": "address"
        },
        {
          "internalType": "bool",
          "name": "approved",
          "type": "bool"
        }
      ],
      "name": "setApprovalForAll",
      "outputs": [],
      "stateMutability": "nonpayable",
      "type": "function"
    },
    {
      "inputs": [
        {
          "internalType": "address",
          "name": "addr",
          "type": "address"
        }
      ],
      "name": "setContract",
      "outputs": [],
      "stateMutability": "nonpayable",
      "type": "function"
    },
    {
      "inputs": [
        {
          "internalType": "bytes4",
          "name": "interfaceId",
          "type": "bytes4"
        }
      ],
      "name": "supportsInterface",
      "outputs": [
        {
          "internalType": "bool",
          "name": "",
          "type": "bool"
        }
      ],
      "stateMutability": "view",
      "type": "function"
    },
    {
      "inputs": [],
      "name": "tokenID",
      "outputs": [
        {
          "internalType": "uint256",
          "name": "",
          "type": "uint256"
        }
      ],
      "stateMutability": "view",
      "type": "function"
    },
    {
      "inputs": [
        {
          "internalType": "uint256",
          "name": "",
          "type": "uint256"
        },
        {
          "internalType": "uint256",
          "name": "",
          "type": "uint256"
        }
      ],
      "name": "tokenIDtoClaimers",
      "outputs": [
        {
          "internalType": "address",
          "name": "",
          "type": "address"
        }
      ],
      "stateMutability": "view",
      "type": "function"
    },
    {
      "inputs": [
        {
          "internalType": "uint256",
          "name": "",
          "type": "uint256"
        }
      ],
      "name": "tokenIDtoDone",
      "outputs": [
        {
          "internalType": "bool",
          "name": "",
          "type": "bool"
        }
      ],
      "stateMutability": "view",
      "type": "function"
    },
    {
      "inputs": [
        {
          "internalType": "uint256",
          "name": "",
          "type": "uint256"
        }
      ],
      "name": "tokenIDtoIPFS",
      "outputs": [
        {
          "internalType": "string",
          "name": "",
          "type": "string"
        }
      ],
      "stateMutability": "view",
      "type": "function"
    },
    {
      "inputs": [
        {
          "internalType": "uint256",
          "name": "",
          "type": "uint256"
        }
      ],
      "name": "tokenIDtoReward",
      "outputs": [
        {
          "internalType": "uint256",
          "name": "",
          "type": "uint256"
        }
      ],
      "stateMutability": "view",
      "type": "function"
    },
    {
      "inputs": [
        {
          "internalType": "string",
          "name": "tokenId",
          "type": "string"
        }
      ],
      "name": "tokenURI",
      "outputs": [
        {
          "internalType": "string",
          "name": "",
          "type": "string"
        }
      ],
      "stateMutability": "pure",
      "type": "function"
    },
    {
      "inputs": [],
      "name": "treasury",
      "outputs": [
        {
          "internalType": "address",
          "name": "",
          "type": "address"
        }
      ],
      "stateMutability": "view",
      "type": "function"
    },
    {
      "inputs": [
        {
          "internalType": "uint256",
          "name": "",
          "type": "uint256"
        }
      ],
      "name": "uri",
      "outputs": [
        {
          "internalType": "string",
          "name": "",
          "type": "string"
        }
      ],
      "stateMutability": "view",
      "type": "function"
    }
  ],
  "bytecode": {
    "object": "0x6080604052600680546001600160a01b031916905560006007553480156200002657600080fd5b506040518060800160405280605d81526020016200339d605d91396200004c8162000065565b5060016004556200005f60003362000077565b62000295565b6002620000738282620001c9565b5050565b60008281526003602090815260408083206001600160a01b038516845290915290205462000073908390839060ff16620000735760008281526003602090815260408083206001600160a01b03851684529091529020805460ff19166001179055620000e03390565b6001600160a01b0316816001600160a01b0316837f2f8788117e7eff1d82e926ec794901d17c78024a50270940304540a733656f0d60405160405180910390a45050565b634e487b7160e01b600052604160045260246000fd5b600181811c908216806200014f57607f821691505b6020821081036200017057634e487b7160e01b600052602260045260246000fd5b50919050565b601f821115620001c457600081815260208120601f850160051c810160208610156200019f5750805b601f850160051c820191505b81811015620001c057828155600101620001ab565b5050505b505050565b81516001600160401b03811115620001e557620001e562000124565b620001fd81620001f684546200013a565b8462000176565b602080601f8311600181146200023557600084156200021c5750858301515b600019600386901b1c1916600185901b178555620001c0565b600085815260208120601f198616915b82811015620002665788860151825594840194600190910190840162000245565b5085821015620002855787850151600019600388901b60f8161c191681555b5050505050600190811b01905550565b6130f880620002a56000396000f3fe60806040526004361061020e5760003560e01c806375f890ab11610118578063d159a942116100a0578063e3f0947e1161006f578063e3f0947e1461062b578063e706a6391461064b578063e985e9c51461066b578063f242432a146106b4578063f88e3204146106d457600080fd5b8063d159a942146105b6578063d547741f146105e3578063d8eaae3c14610603578063da58ed1d1461061857600080fd5b8063a217fddf116100e7578063a217fddf1461051b578063a22cb46514610530578063a406370a14610550578063a5c42ef114610580578063c4f779771461059657600080fd5b806375f890ab1461048e5780638b4f0496146104ae57806391d14854146104ce578063a08eda5a146104ee57600080fd5b80632f2ff15d1161019b578063451493901161016a57806345149390146103d45780634cf12d26146103f45780634e1273f41461041457806361775eb01461044157806361d027b31461045657600080fd5b80632f2ff15d1461035f57806336568abe1461037f578063394c244b1461039f5780633e9b347f146103bf57600080fd5b8063111002aa116101e2578063111002aa146102c55780631ccd7910146102d85780632426bb38146102ed578063248a9ca31461030f5780632eb2c2d61461033f57600080fd5b8062fdd58e1461021357806301ffc9a7146102465780630547175f146102765780630e89341c14610298575b600080fd5b34801561021f57600080fd5b5061023361022e36600461233b565b6106f6565b6040519081526020015b60405180910390f35b34801561025257600080fd5b5061026661026136600461237b565b61078c565b604051901515815260200161023d565b34801561028257600080fd5b5061029661029136600461244f565b61079d565b005b3480156102a457600080fd5b506102b86102b336600461248c565b6108bd565b60405161023d9190612501565b6102966102d336600461244f565b610951565b3480156102e457600080fd5b50610296610ac3565b3480156102f957600080fd5b5061023360008051602061305083398151915281565b34801561031b57600080fd5b5061023361032a36600461248c565b60009081526003602052604090206001015490565b34801561034b57600080fd5b5061029661035a3660046125a9565b610b42565b34801561036b57600080fd5b5061029661037a366004612653565b610b8e565b34801561038b57600080fd5b5061029661039a366004612653565b610bb8565b3480156103ab57600080fd5b506102966103ba36600461244f565b610c36565b3480156103cb57600080fd5b50610296610db0565b3480156103e057600080fd5b506102b86103ef36600461248c565b610e2d565b34801561040057600080fd5b506102b861040f36600461244f565b610ec7565b34801561042057600080fd5b5061043461042f36600461267f565b610f09565b60405161023d9190612785565b34801561044d57600080fd5b50610296611033565b34801561046257600080fd5b50600654610476906001600160a01b031681565b6040516001600160a01b03909116815260200161023d565b34801561049a57600080fd5b506102966104a9366004612798565b61104b565b3480156104ba57600080fd5b506104766104c93660046127b3565b6110c4565b3480156104da57600080fd5b506102666104e9366004612653565b6110fc565b3480156104fa57600080fd5b5061050e61050936600461244f565b611127565b60405161023d91906127d5565b34801561052757600080fd5b50610233600081565b34801561053c57600080fd5b5061029661054b366004612822565b611200565b34801561055c57600080fd5b5061026661056b36600461248c565b600b6020526000908152604090205460ff1681565b34801561058c57600080fd5b5061023360075481565b3480156105a257600080fd5b506102966105b136600461244f565b61120b565b3480156105c257600080fd5b506102336105d136600461248c565b60096020526000908152604090205481565b3480156105ef57600080fd5b506102966105fe366004612653565b6113be565b34801561060f57600080fd5b506102966113e3565b61029661062636600461285e565b6113fb565b34801561063757600080fd5b5061029661064636600461285e565b61158f565b34801561065757600080fd5b5061023361066636600461244f565b6116af565b34801561067757600080fd5b506102666106863660046128a3565b6001600160a01b03918216600090815260016020908152604080832093909416825291909152205460ff1690565b3480156106c057600080fd5b506102966106cf3660046128cd565b611782565b3480156106e057600080fd5b5061023360008051602061303083398151915281565b60006001600160a01b0383166107665760405162461bcd60e51b815260206004820152602a60248201527f455243313135353a2061646472657373207a65726f206973206e6f742061207660448201526930b634b21037bbb732b960b11b60648201526084015b60405180910390fd5b506000908152602081815260408083206001600160a01b03949094168352929052205490565b6000610797826117c7565b92915050565b6107b5600080516020613030833981519152336110fc565b6107d15760405162461bcd60e51b815260040161075d90612932565b60405163e706a63960e01b8152600090309063e706a639906107f7908590600401612501565b602060405180830381865afa158015610814573d6000803e3d6000fd5b505050506040513d601f19601f820116820180604052508101906108389190612969565b6007546000908152600a6020908152604080832080546001810182559084528284200180546001600160a01b03191633179055838352600882528083206009909252918290205491519293507f7b97a3d08076071cb6e8f829dddbadad5052e44acba30cafb2c04d0ed62f7416926108b19285916129bc565b60405180910390a15050565b6060600280546108cc90612982565b80601f01602080910402602001604051908101604052809291908181526020018280546108f890612982565b80156109455780601f1061091a57610100808354040283529160200191610945565b820191906000526020600020905b81548152906001019060200180831161092857829003601f168201915b50505050509050919050565b610969600080516020613050833981519152336110fc565b6109b15760405162461bcd60e51b815260206004820152601960248201527821b0b63632b91034b9903737ba1030b71032b6b83637bcb2b960391b604482015260640161075d565b600034116109d15760405162461bcd60e51b815260040161075d90612a52565b6006546007546040805160208101909152600081523492610a00926001600160a01b03909116916001906117ec565b6006546040516001600160a01b039091169082156108fc029083906000818181858888f19350505050158015610a3a573d6000803e3d6000fd5b506007546000908152600860205260409020610a568382612adb565b506007805460009081526009602052604090819020839055905490517f283ced7da583945ee4564faf07b3b8b7ff35fa126060b72d94dce69b98ec2f8f91610aa2918591908590612b9b565b60405180910390a160078054906000610aba83612bd6565b91905055505050565b610adb600080516020613050833981519152336110fc565b15610b285760405162461bcd60e51b815260206004820152601d60248201527f43616c6c657220697320616c726561647920616e20656d706c6f796572000000604482015260640161075d565b610b4060008051602061303083398151915233610b8e565b565b6001600160a01b038516331480610b5e5750610b5e8533610686565b610b7a5760405162461bcd60e51b815260040161075d90612bef565b610b8785858585856118f7565b5050505050565b600082815260036020526040902060010154610ba981611ad4565b610bb38383611ae1565b505050565b6001600160a01b0381163314610c285760405162461bcd60e51b815260206004820152602f60248201527f416363657373436f6e74726f6c3a2063616e206f6e6c792072656e6f756e636560448201526e103937b632b9903337b91039b2b63360891b606482015260840161075d565b610c328282611b67565b5050565b610c4e600080516020613030833981519152336110fc565b610c6a5760405162461bcd60e51b815260040161075d90612932565b60405163e706a63960e01b8152600090309063e706a63990610c90908590600401612501565b602060405180830381865afa158015610cad573d6000803e3d6000fd5b505050506040513d601f19601f82011682018060405250810190610cd19190612969565b6000818152600b602052604090205490915060ff16610d025760405162461bcd60e51b815260040161075d90612c3d565b60065460405163f3fef3a360e01b8152336004820152602481018390526001600160a01b039091169063f3fef3a390604401600060405180830381600087803b158015610d4e57600080fd5b505af1158015610d62573d6000803e3d6000fd5b50505060008281526008602090815260408083206009909252918290205491517fe1921eb172638f70dfef712aa64540395a5b474d6e53fee6611cd5bbdae2cc6a93506108b19285916129bc565b610dc8600080516020613030833981519152336110fc565b15610e155760405162461bcd60e51b815260206004820152601e60248201527f43616c6c657220697320616c7265616479206120636f6e74726163746f720000604482015260640161075d565b610b4060008051602061305083398151915233610b8e565b60086020526000908152604090208054610e4690612982565b80601f0160208091040260200160405190810160405280929190818152602001828054610e7290612982565b8015610ebf5780601f10610e9457610100808354040283529160200191610ebf565b820191906000526020600020905b815481529060010190602001808311610ea257829003601f168201915b505050505081565b6060610797604051806080016040528060538152602001613070605391398360405180604001604052806005815260200164173539b7b760d91b815250611bce565b60608151835114610f6e5760405162461bcd60e51b815260206004820152602960248201527f455243313135353a206163636f756e747320616e6420696473206c656e677468604482015268040dad2e6dac2e8c6d60bb1b606482015260840161075d565b6000835167ffffffffffffffff811115610f8a57610f8a612398565b604051908082528060200260200182016040528015610fb3578160200160208202803683370190505b50905060005b845181101561102b57610ffe858281518110610fd757610fd7612c8c565b6020026020010151858381518110610ff157610ff1612c8c565b60200260200101516106f6565b82828151811061101057611010612c8c565b602090810291909101015261102481612bd6565b9050610fb9565b509392505050565b610b40600080516020613030833981519152336113be565b6110566000336110fc565b6110a25760405162461bcd60e51b815260206004820152601760248201527f43616c6c6572206973206e6f74207468652061646d696e000000000000000000604482015260640161075d565b600680546001600160a01b0319166001600160a01b0392909216919091179055565b600a60205281600052604060002081815481106110e057600080fd5b6000918252602090912001546001600160a01b03169150829050565b60009182526003602090815260408084206001600160a01b0393909316845291905290205460ff1690565b60405163e706a63960e01b8152606090600090309063e706a63990611150908690600401612501565b602060405180830381865afa15801561116d573d6000803e3d6000fd5b505050506040513d601f19601f820116820180604052508101906111919190612969565b6000818152600a602090815260409182902080548351818402810184019094528084529394509192908301828280156111f357602002820191906000526020600020905b81546001600160a01b031681526001909101906020018083116111d5575b5050505050915050919050565b610c32338383611bfd565b611223600080516020613030833981519152336110fc565b61123f5760405162461bcd60e51b815260040161075d90612932565b60405163e706a63960e01b8152600090309063e706a63990611265908590600401612501565b602060405180830381865afa158015611282573d6000803e3d6000fd5b505050506040513d601f19601f820116820180604052508101906112a69190612969565b6000818152600b602052604090205490915060ff166112d75760405162461bcd60e51b815260040161075d90612c3d565b60016112e333836106f6565b101561133d5760405162461bcd60e51b815260206004820152602360248201527f596f752068617665206e6f7420636f6d706c6574656420746865207461736b206044820152621e595d60ea1b606482015260840161075d565b60008181526009602052604090819020546006549151631f58fee360e11b8152336004820152602481018490526044810182905290916001600160a01b031690633eb1fdc6906064015b600060405180830381600087803b1580156113a157600080fd5b505af11580156113b5573d6000803e3d6000fd5b50505050505050565b6000828152600360205260409020600101546113d981611ad4565b610bb38383611b67565b610b40600080516020613050833981519152336113be565b611413600080516020613050833981519152336110fc565b61145b5760405162461bcd60e51b815260206004820152601960248201527821b0b63632b91034b9903737ba1030b71032b6b83637bcb2b960391b604482015260640161075d565b6000341161147b5760405162461bcd60e51b815260040161075d90612a52565b60065460075460408051602081019091526000815234926114aa926001600160a01b03909116916001906117ec565b6006546040516001600160a01b039091169082156108fc029083906000818181858888f193505050501580156114e4573d6000803e3d6000fd5b5060075460009081526008602052604090206115008482612adb565b507f283ced7da583945ee4564faf07b3b8b7ff35fa126060b72d94dce69b98ec2f8f836007548360405161153693929190612b9b565b60405180910390a16007805490600061154e83612bd6565b909155505060065460075460405163131f8abb60e31b81526001600160a01b03858116600483015260248201929092529116906398fc55d890604401611387565b6115a7600080516020613050833981519152336110fc565b6115f35760405162461bcd60e51b815260206004820152601860248201527f43616c6c6572206973206e6f74206120656d706c6f7965720000000000000000604482015260640161075d565b60405163e706a63960e01b8152600090309063e706a63990611619908690600401612501565b602060405180830381865afa158015611636573d6000803e3d6000fd5b505050506040513d601f19601f8201168201806040525081019061165a9190612969565b6000818152600b602052604090819020805460ff19166001179055600654905163131f8abb60e31b81526001600160a01b038581166004830152602482018490529293509116906398fc55d890604401611387565b60008060005b600754811161177b576000818152600860205260409020805461176091906116dc90612982565b80601f016020809104026020016040519081016040528092919081815260200182805461170890612982565b80156117555780601f1061172a57610100808354040283529160200191611755565b820191906000526020600020905b81548152906001019060200180831161173857829003601f168201915b505050505085611cdd565b15611769578091505b8061177381612bd6565b9150506116b5565b5092915050565b6001600160a01b03851633148061179e575061179e8533610686565b6117ba5760405162461bcd60e51b815260040161075d90612bef565b610b878585858585611d36565b60006001600160e01b03198216637965db0b60e01b1480610797575061079782611e60565b6001600160a01b03841661184c5760405162461bcd60e51b815260206004820152602160248201527f455243313135353a206d696e7420746f20746865207a65726f206164647265736044820152607360f81b606482015260840161075d565b33600061185885611eb0565b9050600061186585611eb0565b90506000868152602081815260408083206001600160a01b038b16845290915281208054879290611897908490612ca2565b909155505060408051878152602081018790526001600160a01b03808a1692600092918716917fc3d58168c5ae7397731d063d5bbf3d657854427343f4c083240f7aacaa2d0f62910160405180910390a46113b583600089898989611efb565b81518351146119595760405162461bcd60e51b815260206004820152602860248201527f455243313135353a2069647320616e6420616d6f756e7473206c656e677468206044820152670dad2e6dac2e8c6d60c31b606482015260840161075d565b6001600160a01b03841661197f5760405162461bcd60e51b815260040161075d90612cba565b3360005b8451811015611a665760008582815181106119a0576119a0612c8c565b6020026020010151905060008583815181106119be576119be612c8c565b602090810291909101810151600084815280835260408082206001600160a01b038e168352909352919091205490915081811015611a0e5760405162461bcd60e51b815260040161075d90612cff565b6000838152602081815260408083206001600160a01b038e8116855292528083208585039055908b16825281208054849290611a4b908490612ca2565b9250508190555050505080611a5f90612bd6565b9050611983565b50846001600160a01b0316866001600160a01b0316826001600160a01b03167f4a39dc06d4c0dbc64b70af90fd698a233a518aa5d07e595d983b8c0526c8f7fb8787604051611ab6929190612d49565b60405180910390a4611acc818787878787612056565b505050505050565b611ade8133612111565b50565b611aeb82826110fc565b610c325760008281526003602090815260408083206001600160a01b03851684529091529020805460ff19166001179055611b233390565b6001600160a01b0316816001600160a01b0316837f2f8788117e7eff1d82e926ec794901d17c78024a50270940304540a733656f0d60405160405180910390a45050565b611b7182826110fc565b15610c325760008281526003602090815260408083206001600160a01b0385168085529252808320805460ff1916905551339285917ff6391f5c32d9c69d2a47ea670b442974b53935d1edc7fd64eb21e047a839171b9190a45050565b6060838383604051602001611be593929190612d77565b60405160208183030381529060405290509392505050565b816001600160a01b0316836001600160a01b031603611c705760405162461bcd60e51b815260206004820152602960248201527f455243313135353a2073657474696e6720617070726f76616c20737461747573604482015268103337b91039b2b63360b91b606482015260840161075d565b6001600160a01b03838116600081815260016020908152604080832094871680845294825291829020805460ff191686151590811790915591519182527f17307eab39ab6107e8899845ad3d59bd9653f200f220920489ca2b5937696c31910160405180910390a3505050565b600081604051602001611cf09190612dba565b6040516020818303038152906040528051906020012083604051602001611d179190612dba565b6040516020818303038152906040528051906020012014905092915050565b6001600160a01b038416611d5c5760405162461bcd60e51b815260040161075d90612cba565b336000611d6885611eb0565b90506000611d7585611eb0565b90506000868152602081815260408083206001600160a01b038c16845290915290205485811015611db85760405162461bcd60e51b815260040161075d90612cff565b6000878152602081815260408083206001600160a01b038d8116855292528083208985039055908a16825281208054889290611df5908490612ca2565b909155505060408051888152602081018890526001600160a01b03808b16928c821692918816917fc3d58168c5ae7397731d063d5bbf3d657854427343f4c083240f7aacaa2d0f62910160405180910390a4611e55848a8a8a8a8a611efb565b505050505050505050565b60006001600160e01b03198216636cdb3d1360e11b1480611e9157506001600160e01b031982166303a24d0760e21b145b8061079757506301ffc9a760e01b6001600160e01b0319831614610797565b60408051600180825281830190925260609160009190602080830190803683370190505090508281600081518110611eea57611eea612c8c565b602090810291909101015292915050565b6001600160a01b0384163b15611acc5760405163f23a6e6160e01b81526001600160a01b0385169063f23a6e6190611f3f9089908990889088908890600401612dd6565b6020604051808303816000875af1925050508015611f7a575060408051601f3d908101601f19168201909252611f7791810190612e1b565b60015b61202657611f86612e38565b806308c379a003611fbf5750611f9a612e54565b80611fa55750611fc1565b8060405162461bcd60e51b815260040161075d9190612501565b505b60405162461bcd60e51b815260206004820152603460248201527f455243313135353a207472616e7366657220746f206e6f6e2d455243313135356044820152732932b1b2b4bb32b91034b6b83632b6b2b73a32b960611b606482015260840161075d565b6001600160e01b0319811663f23a6e6160e01b146113b55760405162461bcd60e51b815260040161075d90612ede565b6001600160a01b0384163b15611acc5760405163bc197c8160e01b81526001600160a01b0385169063bc197c819061209a9089908990889088908890600401612f26565b6020604051808303816000875af19250505080156120d5575060408051601f3d908101601f191682019092526120d291810190612e1b565b60015b6120e157611f86612e38565b6001600160e01b0319811663bc197c8160e01b146113b55760405162461bcd60e51b815260040161075d90612ede565b61211b82826110fc565b610c32576121288161216a565b61213383602061217c565b604051602001612144929190612f84565b60408051601f198184030181529082905262461bcd60e51b825261075d91600401612501565b60606107976001600160a01b03831660145b6060600061218b836002612ff9565b612196906002612ca2565b67ffffffffffffffff8111156121ae576121ae612398565b6040519080825280601f01601f1916602001820160405280156121d8576020820181803683370190505b509050600360fc1b816000815181106121f3576121f3612c8c565b60200101906001600160f81b031916908160001a905350600f60fb1b8160018151811061222257612222612c8c565b60200101906001600160f81b031916908160001a9053506000612246846002612ff9565b612251906001612ca2565b90505b60018111156122c9576f181899199a1a9b1b9c1cb0b131b232b360811b85600f166010811061228557612285612c8c565b1a60f81b82828151811061229b5761229b612c8c565b60200101906001600160f81b031916908160001a90535060049490941c936122c281613018565b9050612254565b5083156123185760405162461bcd60e51b815260206004820181905260248201527f537472696e67733a20686578206c656e67746820696e73756666696369656e74604482015260640161075d565b9392505050565b80356001600160a01b038116811461233657600080fd5b919050565b6000806040838503121561234e57600080fd5b6123578361231f565b946020939093013593505050565b6001600160e01b031981168114611ade57600080fd5b60006020828403121561238d57600080fd5b813561231881612365565b634e487b7160e01b600052604160045260246000fd5b601f8201601f1916810167ffffffffffffffff811182821017156123d4576123d4612398565b6040525050565b600082601f8301126123ec57600080fd5b813567ffffffffffffffff81111561240657612406612398565b60405161241d601f8301601f1916602001826123ae565b81815284602083860101111561243257600080fd5b816020850160208301376000918101602001919091529392505050565b60006020828403121561246157600080fd5b813567ffffffffffffffff81111561247857600080fd5b612484848285016123db565b949350505050565b60006020828403121561249e57600080fd5b5035919050565b60005b838110156124c05781810151838201526020016124a8565b838111156124cf576000848401525b50505050565b600081518084526124ed8160208601602086016124a5565b601f01601f19169290920160200192915050565b60208152600061231860208301846124d5565b600067ffffffffffffffff82111561252e5761252e612398565b5060051b60200190565b600082601f83011261254957600080fd5b8135602061255682612514565b60405161256382826123ae565b83815260059390931b850182019282810191508684111561258357600080fd5b8286015b8481101561259e5780358352918301918301612587565b509695505050505050565b600080600080600060a086880312156125c157600080fd5b6125ca8661231f565b94506125d86020870161231f565b9350604086013567ffffffffffffffff808211156125f557600080fd5b61260189838a01612538565b9450606088013591508082111561261757600080fd5b61262389838a01612538565b9350608088013591508082111561263957600080fd5b50612646888289016123db565b9150509295509295909350565b6000806040838503121561266657600080fd5b823591506126766020840161231f565b90509250929050565b6000806040838503121561269257600080fd5b823567ffffffffffffffff808211156126aa57600080fd5b818501915085601f8301126126be57600080fd5b813560206126cb82612514565b6040516126d882826123ae565b83815260059390931b85018201928281019150898411156126f857600080fd5b948201945b8386101561271d5761270e8661231f565b825294820194908201906126fd565b9650508601359250508082111561273357600080fd5b5061274085828601612538565b9150509250929050565b600081518084526020808501945080840160005b8381101561277a5781518752958201959082019060010161275e565b509495945050505050565b602081526000612318602083018461274a565b6000602082840312156127aa57600080fd5b6123188261231f565b600080604083850312156127c657600080fd5b50508035926020909101359150565b6020808252825182820181905260009190848201906040850190845b818110156128165783516001600160a01b0316835292840192918401916001016127f1565b50909695505050505050565b6000806040838503121561283557600080fd5b61283e8361231f565b91506020830135801515811461285357600080fd5b809150509250929050565b6000806040838503121561287157600080fd5b823567ffffffffffffffff81111561288857600080fd5b612894858286016123db565b9250506126766020840161231f565b600080604083850312156128b657600080fd5b6128bf8361231f565b91506126766020840161231f565b600080600080600060a086880312156128e557600080fd5b6128ee8661231f565b94506128fc6020870161231f565b93506040860135925060608601359150608086013567ffffffffffffffff81111561292657600080fd5b612646888289016123db565b6020808252601a908201527f43616c6c6572206973206e6f74206120636f6e74726163746f72000000000000604082015260600190565b60006020828403121561297b57600080fd5b5051919050565b600181811c9082168061299657607f821691505b6020821081036129b657634e487b7160e01b600052602260045260246000fd5b50919050565b6060815260008085546129ce81612982565b80606086015260806001808416600081146129f05760018114612a0a57612a3b565b60ff1985168884015283151560051b880183019550612a3b565b8a60005260208060002060005b86811015612a325781548b8201870152908401908201612a17565b8a018501975050505b505050505060208301949094525060400152919050565b60208082526023908201527f506c6561736520646566696e6520612072657761726420666f7220746865207460408201526261736b60e81b606082015260800190565b601f821115610bb357600081815260208120601f850160051c81016020861015612abc5750805b601f850160051c820191505b81811015611acc57828155600101612ac8565b815167ffffffffffffffff811115612af557612af5612398565b612b0981612b038454612982565b84612a95565b602080601f831160018114612b3e5760008415612b265750858301515b600019600386901b1c1916600185901b178555611acc565b600085815260208120601f198616915b82811015612b6d57888601518255948401946001909101908401612b4e565b5085821015612b8b5787850151600019600388901b60f8161c191681555b5050505050600190811b01905550565b606081526000612bae60608301866124d5565b60208301949094525060400152919050565b634e487b7160e01b600052601160045260246000fd5b600060018201612be857612be8612bc0565b5060010190565b6020808252602e908201527f455243313135353a2063616c6c6572206973206e6f7420746f6b656e206f776e60408201526d195c881bdc88185c1c1c9bdd995960921b606082015260800190565b6020808252602f908201527f5461736b20636f6d706c6574696f6e206973206e6f7420617070726f7665642060408201526e313c903a34329032b6b83637bcb2b960891b606082015260800190565b634e487b7160e01b600052603260045260246000fd5b60008219821115612cb557612cb5612bc0565b500190565b60208082526025908201527f455243313135353a207472616e7366657220746f20746865207a65726f206164604082015264647265737360d81b606082015260800190565b6020808252602a908201527f455243313135353a20696e73756666696369656e742062616c616e636520666f60408201526939103a3930b739b332b960b11b606082015260800190565b604081526000612d5c604083018561274a565b8281036020840152612d6e818561274a565b95945050505050565b60008451612d898184602089016124a5565b845190830190612d9d8183602089016124a5565b8451910190612db08183602088016124a5565b0195945050505050565b60008251612dcc8184602087016124a5565b9190910192915050565b6001600160a01b03868116825285166020820152604081018490526060810183905260a060808201819052600090612e10908301846124d5565b979650505050505050565b600060208284031215612e2d57600080fd5b815161231881612365565b600060033d1115612e515760046000803e5060005160e01c5b90565b600060443d1015612e625790565b6040516003193d81016004833e81513d67ffffffffffffffff8160248401118184111715612e9257505050505090565b8285019150815181811115612eaa5750505050505090565b843d8701016020828501011115612ec45750505050505090565b612ed3602082860101876123ae565b509095945050505050565b60208082526028908201527f455243313135353a204552433131353552656365697665722072656a656374656040820152676420746f6b656e7360c01b606082015260800190565b6001600160a01b0386811682528516602082015260a060408201819052600090612f529083018661274a565b8281036060840152612f64818661274a565b90508281036080840152612f7881856124d5565b98975050505050505050565b7f416363657373436f6e74726f6c3a206163636f756e7420000000000000000000815260008351612fbc8160178501602088016124a5565b7001034b99036b4b9b9b4b733903937b6329607d1b6017918401918201528351612fed8160288401602088016124a5565b01602801949350505050565b600081600019048311821515161561301357613013612bc0565b500290565b60008161302757613027612bc0565b50600019019056feef28dcbf06eb73add8f77665c46a6263e719f928f9c34710ec1097573ba6e20cfc7c36207174f786648d2e624616a4b40e15fd7f0268b4e36af5057f0c43c83568747470733a2f2f697066732e696f2f69706e732f6b3531717a693575717535646969746272306b7977326a7574357a36643036686d39323374316d71617967756477347a663275316f636269703838696571a264697066735822122099ece86ee06c2d8d04af08b3b6b7f2bebb75f99a8fc0510aa43046c20e9ca69664736f6c634300080f003368747470733a2f2f697066732e696f2f69706e732f6b3531717a693575717535646969746272306b7977326a7574357a36643036686d39323374316d71617967756477347a663275316f6362697038386965712f7b69647d2e6a736f6e",
    "linkReferences": {}
  },
  "methodIdentifiers": {
    "CONTRACTOR_ROLE()": "f88e3204",
    "DEFAULT_ADMIN_ROLE()": "a217fddf",
    "EMPLOYER_ROLE()": "2426bb38",
    "approveCompletedBounty(string,address)": "e3f0947e",
    "balanceOf(address,uint256)": "00fdd58e",
    "balanceOfBatch(address[],uint256[])": "4e1273f4",
    "claimFunds(string)": "c4f77977",
    "claimBounty(string)": "0547175f",
    "completeBounty(string)": "394c244b",
    "createPrivateBounty(string,address)": "da58ed1d",
    "createBounty(string)": "111002aa",
    "getClaimers(string)": "a08eda5a",
    "getRoleAdmin(bytes32)": "248a9ca3",
    "getTokenID(string)": "e706a639",
    "grantRole(bytes32,address)": "2f2ff15d",
    "grantRoleContractor()": "1ccd7910",
    "grantRoleEmployer()": "3e9b347f",
    "hasRole(bytes32,address)": "91d14854",
    "isApprovedForAll(address,address)": "e985e9c5",
    "renounceRole(bytes32,address)": "36568abe",
    "revokeRole(bytes32,address)": "d547741f",
    "revokeRoleContractor()": "61775eb0",
    "revokeRoleEmployer()": "d8eaae3c",
    "safeBatchTransferFrom(address,address,uint256[],uint256[],bytes)": "2eb2c2d6",
    "safeTransferFrom(address,address,uint256,uint256,bytes)": "f242432a",
    "setApprovalForAll(address,bool)": "a22cb465",
    "setContract(address)": "75f890ab",
    "supportsInterface(bytes4)": "01ffc9a7",
    "tokenID()": "a5c42ef1",
    "tokenIDtoClaimers(uint256,uint256)": "8b4f0496",
    "tokenIDtoDone(uint256)": "a406370a",
    "tokenIDtoIPFS(uint256)": "45149390",
    "tokenIDtoReward(uint256)": "d159a942",
    "tokenURI(string)": "4cf12d26",
    "treasury()": "61d027b3",
    "uri(uint256)": "0e89341c"
  },
  "id": 15
}