{
  "abi": [
    {
      "inputs": [],
      "stateMutability": "nonpayable",
      "type": "constructor"
    },
    {
      "anonymous": false,
      "inputs": [
        {
          "indexed": true,
          "internalType": "address",
          "name": "previousOwner",
          "type": "address"
        },
        {
          "indexed": true,
          "internalType": "address",
          "name": "newOwner",
          "type": "address"
        }
      ],
      "name": "OwnershipTransferred",
      "type": "event"
    },
    {
      "inputs": [],
      "name": "BountyscapeAddr",
      "outputs": [
        {
          "internalType": "address",
          "name": "",
          "type": "address"
        }
      ],
      "stateMutability": "view",
      "type": "function"
    },
    {
      "inputs": [
        {
          "internalType": "uint256",
          "name": "",
          "type": "uint256"
        }
      ],
      "name": "addressIdMapping",
      "outputs": [
        {
          "internalType": "address",
          "name": "",
          "type": "address"
        }
      ],
      "stateMutability": "view",
      "type": "function"
    },
    {
      "inputs": [
        {
          "internalType": "address",
          "name": "",
          "type": "address"
        },
        {
          "internalType": "address",
          "name": "",
          "type": "address"
        },
        {
          "internalType": "uint256[]",
          "name": "",
          "type": "uint256[]"
        },
        {
          "internalType": "uint256[]",
          "name": "",
          "type": "uint256[]"
        },
        {
          "internalType": "bytes",
          "name": "",
          "type": "bytes"
        }
      ],
      "name": "onERC1155BatchReceived",
      "outputs": [
        {
          "internalType": "bytes4",
          "name": "",
          "type": "bytes4"
        }
      ],
      "stateMutability": "nonpayable",
      "type": "function"
    },
    {
      "inputs": [
        {
          "internalType": "address",
          "name": "",
          "type": "address"
        },
        {
          "internalType": "address",
          "name": "",
          "type": "address"
        },
        {
          "internalType": "uint256",
          "name": "",
          "type": "uint256"
        },
        {
          "internalType": "uint256",
          "name": "",
          "type": "uint256"
        },
        {
          "internalType": "bytes",
          "name": "",
          "type": "bytes"
        }
      ],
      "name": "onERC1155Received",
      "outputs": [
        {
          "internalType": "bytes4",
          "name": "",
          "type": "bytes4"
        }
      ],
      "stateMutability": "nonpayable",
      "type": "function"
    },
    {
      "inputs": [],
      "name": "owner",
      "outputs": [
        {
          "internalType": "address",
          "name": "",
          "type": "address"
        }
      ],
      "stateMutability": "view",
      "type": "function"
    },
    {
      "inputs": [],
      "name": "renounceOwnership",
      "outputs": [],
      "stateMutability": "nonpayable",
      "type": "function"
    },
    {
      "inputs": [
        {
          "internalType": "address",
          "name": "addr",
          "type": "address"
        }
      ],
      "name": "setBountyscape",
      "outputs": [],
      "stateMutability": "nonpayable",
      "type": "function"
    },
    {
      "inputs": [
        {
          "internalType": "bytes4",
          "name": "interfaceId",
          "type": "bytes4"
        }
      ],
      "name": "supportsInterface",
      "outputs": [
        {
          "internalType": "bool",
          "name": "",
          "type": "bool"
        }
      ],
      "stateMutability": "view",
      "type": "function"
    },
    {
      "inputs": [
        {
          "internalType": "address",
          "name": "newOwner",
          "type": "address"
        }
      ],
      "name": "transferOwnership",
      "outputs": [],
      "stateMutability": "nonpayable",
      "type": "function"
    },
    {
      "inputs": [
        {
          "internalType": "address",
          "name": "addr",
          "type": "address"
        },
        {
          "internalType": "uint256",
          "name": "tokenId",
          "type": "uint256"
        }
      ],
      "name": "whitelist",
      "outputs": [],
      "stateMutability": "nonpayable",
      "type": "function"
    },
    {
      "inputs": [
        {
          "internalType": "address",
          "name": "addr",
          "type": "address"
        },
        {
          "internalType": "uint256",
          "name": "id",
          "type": "uint256"
        }
      ],
      "name": "withdraw",
      "outputs": [],
      "stateMutability": "payable",
      "type": "function"
    },
    {
      "inputs": [
        {
          "internalType": "address",
          "name": "contractor",
          "type": "address"
        },
        {
          "internalType": "uint256",
          "name": "id",
          "type": "uint256"
        },
        {
          "internalType": "uint256",
          "name": "amount",
          "type": "uint256"
        }
      ],
      "name": "withdrawReward",
      "outputs": [],
      "stateMutability": "payable",
      "type": "function"
    }
  ],
  "bytecode": {
    "object": "0x608060405234801561001057600080fd5b5061001a33610028565b61002333610028565b610078565b600080546001600160a01b038381166001600160a01b0319831681178455604051919092169283917f8be0079c531659141344cd1fd0a4f28419497f9722a3daafe3b4186f6b6457e09190a35050565b61099a806100876000396000f3fe6080604052600436106100a75760003560e01c80638da5cb5b116100645780638da5cb5b1461019957806398fc55d8146101b7578063bc197c81146101d7578063f23a6e611461021c578063f2fde38b14610248578063f3fef3a31461026857600080fd5b806301ffc9a7146100ac5780633eb1fdc6146100e15780633ffd9180146100f657806357ef63cb1461012e578063715018a6146101645780637524e83c14610179575b600080fd5b3480156100b857600080fd5b506100cc6100c7366004610640565b61027b565b60405190151581526020015b60405180910390f35b6100f46100ef36600461068d565b6102b2565b005b34801561010257600080fd5b50600154610116906001600160a01b031681565b6040516001600160a01b0390911681526020016100d8565b34801561013a57600080fd5b506101166101493660046106c0565b6002602052600090815260409020546001600160a01b031681565b34801561017057600080fd5b506100f4610359565b34801561018557600080fd5b506100f46101943660046106d9565b61036d565b3480156101a557600080fd5b506000546001600160a01b0316610116565b3480156101c357600080fd5b506100f46101d23660046106f4565b610397565b3480156101e357600080fd5b506102036101f2366004610855565b63bc197c8160e01b95945050505050565b6040516001600160e01b031990911681526020016100d8565b34801561022857600080fd5b506102036102373660046108ff565b63f23a6e6160e01b95945050505050565b34801561025457600080fd5b506100f46102633660046106d9565b610431565b6100f46102763660046106f4565b6104aa565b60006001600160e01b03198216630271189760e51b14806102ac57506301ffc9a760e01b6001600160e01b03198316145b92915050565b6000828152600260205260409020546001600160a01b0316331461031d5760405162461bcd60e51b815260206004820152601a60248201527f43616c6c6572206973206e6f742077686974656c69737465642100000000000060448201526064015b60405180910390fd5b6040516001600160a01b0384169082156108fc029083906000818181858888f19350505050158015610353573d6000803e3d6000fd5b50505050565b610361610596565b61036b60006105f0565b565b610375610596565b600180546001600160a01b0319166001600160a01b0392909216919091179055565b6001546001600160a01b031633146104035760405162461bcd60e51b815260206004820152602960248201527f43616c6c6572206973206e6f7420426f756e7479736361706520736d61727420604482015268636f6e74726163742160b81b6064820152608401610314565b600090815260026020526040902080546001600160a01b0319166001600160a01b0392909216919091179055565b610439610596565b6001600160a01b03811661049e5760405162461bcd60e51b815260206004820152602660248201527f4f776e61626c653a206e6577206f776e657220697320746865207a65726f206160448201526564647265737360d01b6064820152608401610314565b6104a7816105f0565b50565b6000818152600260205260409020546001600160a01b031633146105105760405162461bcd60e51b815260206004820152601a60248201527f43616c6c6572206973206e6f742077686974656c6973746564210000000000006044820152606401610314565b60018054604051637921219560e11b81523060048201526001600160a01b03858116602483015260448201859052606482019390935260a06084820152600060a482015291169063f242432a9060c401600060405180830381600087803b15801561057a57600080fd5b505af115801561058e573d6000803e3d6000fd5b505050505050565b6000546001600160a01b0316331461036b5760405162461bcd60e51b815260206004820181905260248201527f4f776e61626c653a2063616c6c6572206973206e6f7420746865206f776e65726044820152606401610314565b600080546001600160a01b038381166001600160a01b0319831681178455604051919092169283917f8be0079c531659141344cd1fd0a4f28419497f9722a3daafe3b4186f6b6457e09190a35050565b60006020828403121561065257600080fd5b81356001600160e01b03198116811461066a57600080fd5b9392505050565b80356001600160a01b038116811461068857600080fd5b919050565b6000806000606084860312156106a257600080fd5b6106ab84610671565b95602085013595506040909401359392505050565b6000602082840312156106d257600080fd5b5035919050565b6000602082840312156106eb57600080fd5b61066a82610671565b6000806040838503121561070757600080fd5b61071083610671565b946020939093013593505050565b634e487b7160e01b600052604160045260246000fd5b604051601f8201601f1916810167ffffffffffffffff8111828210171561075d5761075d61071e565b604052919050565b600082601f83011261077657600080fd5b8135602067ffffffffffffffff8211156107925761079261071e565b8160051b6107a1828201610734565b92835284810182019282810190878511156107bb57600080fd5b83870192505b848310156107da578235825291830191908301906107c1565b979650505050505050565b600082601f8301126107f657600080fd5b813567ffffffffffffffff8111156108105761081061071e565b610823601f8201601f1916602001610734565b81815284602083860101111561083857600080fd5b816020850160208301376000918101602001919091529392505050565b600080600080600060a0868803121561086d57600080fd5b61087686610671565b945061088460208701610671565b9350604086013567ffffffffffffffff808211156108a157600080fd5b6108ad89838a01610765565b945060608801359150808211156108c357600080fd5b6108cf89838a01610765565b935060808801359150808211156108e557600080fd5b506108f2888289016107e5565b9150509295509295909350565b600080600080600060a0868803121561091757600080fd5b61092086610671565b945061092e60208701610671565b93506040860135925060608601359150608086013567ffffffffffffffff81111561095857600080fd5b6108f2888289016107e556fea2646970667358221220f97587b59ae3363104671cc188c26549939bc56625a500cfbe351bda7387470f64736f6c634300080f0033",
    "linkReferences": {}
  },
  "methodIdentifiers": {
    "BountyscapeAddr()": "3ffd9180",
    "addressIdMapping(uint256)": "57ef63cb",
    "onERC1155BatchReceived(address,address,uint256[],uint256[],bytes)": "bc197c81",
    "onERC1155Received(address,address,uint256,uint256,bytes)": "f23a6e61",
    "owner()": "8da5cb5b",
    "renounceOwnership()": "715018a6",
    "setBountyscape(address)": "7524e83c",
    "supportsInterface(bytes4)": "01ffc9a7",
    "transferOwnership(address)": "f2fde38b",
    "whitelist(address,uint256)": "98fc55d8",
    "withdraw(address,uint256)": "f3fef3a3",
    "withdrawReward(address,uint256,uint256)": "3eb1fdc6"
  },
  "id": 24
}