{
  "abi": [
    {
      "inputs": [],
      "stateMutability": "nonpayable",
      "type": "constructor"
    },
    {
      "anonymous": false,
      "inputs": [
        {
          "indexed": true,
          "internalType": "address",
          "name": "previousOwner",
          "type": "address"
        },
        {
          "indexed": true,
          "internalType": "address",
          "name": "newOwner",
          "type": "address"
        }
      ],
      "name": "OwnershipTransferred",
      "type": "event"
    },
    {
      "inputs": [],
      "name": "BountyscapeAddr",
      "outputs": [
        {
          "internalType": "address",
          "name": "",
          "type": "address"
        }
      ],
      "stateMutability": "view",
      "type": "function"
    },
    {
      "inputs": [
        {
          "internalType": "uint256",
          "name": "",
          "type": "uint256"
        }
      ],
      "name": "addressIdMapping",
      "outputs": [
        {
          "internalType": "address",
          "name": "",
          "type": "address"
        }
      ],
      "stateMutability": "view",
      "type": "function"
    },
    {
      "inputs": [
        {
          "internalType": "address",
          "name": "",
          "type": "address"
        },
        {
          "internalType": "address",
          "name": "",
          "type": "address"
        },
        {
          "internalType": "uint256[]",
          "name": "",
          "type": "uint256[]"
        },
        {
          "internalType": "uint256[]",
          "name": "",
          "type": "uint256[]"
        },
        {
          "internalType": "bytes",
          "name": "",
          "type": "bytes"
        }
      ],
      "name": "onERC1155BatchReceived",
      "outputs": [
        {
          "internalType": "bytes4",
          "name": "",
          "type": "bytes4"
        }
      ],
      "stateMutability": "nonpayable",
      "type": "function"
    },
    {
      "inputs": [
        {
          "internalType": "address",
          "name": "",
          "type": "address"
        },
        {
          "internalType": "address",
          "name": "",
          "type": "address"
        },
        {
          "internalType": "uint256",
          "name": "",
          "type": "uint256"
        },
        {
          "internalType": "uint256",
          "name": "",
          "type": "uint256"
        },
        {
          "internalType": "bytes",
          "name": "",
          "type": "bytes"
        }
      ],
      "name": "onERC1155Received",
      "outputs": [
        {
          "internalType": "bytes4",
          "name": "",
          "type": "bytes4"
        }
      ],
      "stateMutability": "nonpayable",
      "type": "function"
    },
    {
      "inputs": [],
      "name": "owner",
      "outputs": [
        {
          "internalType": "address",
          "name": "",
          "type": "address"
        }
      ],
      "stateMutability": "view",
      "type": "function"
    },
    {
      "inputs": [],
      "name": "renounceOwnership",
      "outputs": [],
      "stateMutability": "nonpayable",
      "type": "function"
    },
    {
      "inputs": [
        {
          "internalType": "address",
          "name": "addr",
          "type": "address"
        }
      ],
      "name": "setBountyscape",
      "outputs": [],
      "stateMutability": "nonpayable",
      "type": "function"
    },
    {
      "inputs": [
        {
          "internalType": "bytes4",
          "name": "interfaceId",
          "type": "bytes4"
        }
      ],
      "name": "supportsInterface",
      "outputs": [
        {
          "internalType": "bool",
          "name": "",
          "type": "bool"
        }
      ],
      "stateMutability": "view",
      "type": "function"
    },
    {
      "inputs": [
        {
          "internalType": "address",
          "name": "newOwner",
          "type": "address"
        }
      ],
      "name": "transferOwnership",
      "outputs": [],
      "stateMutability": "nonpayable",
      "type": "function"
    },
    {
      "inputs": [
        {
          "internalType": "address",
          "name": "addr",
          "type": "address"
        },
        {
          "internalType": "uint256",
          "name": "tokenId",
          "type": "uint256"
        }
      ],
      "name": "whitelist",
      "outputs": [],
      "stateMutability": "nonpayable",
      "type": "function"
    },
    {
      "inputs": [
        {
          "internalType": "address",
          "name": "addr",
          "type": "address"
        },
        {
          "internalType": "uint256",
          "name": "id",
          "type": "uint256"
        }
      ],
      "name": "withdraw",
      "outputs": [],
      "stateMutability": "payable",
      "type": "function"
    },
    {
      "inputs": [
        {
          "internalType": "address",
          "name": "contractor",
          "type": "address"
        },
        {
          "internalType": "uint256",
          "name": "id",
          "type": "uint256"
        },
        {
          "internalType": "uint256",
          "name": "amount",
          "type": "uint256"
        }
      ],
      "name": "withdrawReward",
      "outputs": [],
      "stateMutability": "payable",
      "type": "function"
    },
    {
      "stateMutability": "payable",
      "type": "receive"
    }
  ],
  "bytecode": {
    "object": "0x608060405234801561001057600080fd5b5061001a33610028565b61002333610028565b610078565b600080546001600160a01b038381166001600160a01b0319831681178455604051919092169283917f8be0079c531659141344cd1fd0a4f28419497f9722a3daafe3b4186f6b6457e09190a35050565b6109ab806100876000396000f3fe6080604052600436106100ab5760003560e01c80638da5cb5b116100645780638da5cb5b146101a457806398fc55d8146101c2578063bc197c81146101e2578063f23a6e6114610227578063f2fde38b14610253578063f3fef3a31461027357600080fd5b806301ffc9a7146100b75780633eb1fdc6146100ec5780633ffd91801461010157806357ef63cb14610139578063715018a61461016f5780637524e83c1461018457600080fd5b366100b257005b600080fd5b3480156100c357600080fd5b506100d76100d2366004610651565b610286565b60405190151581526020015b60405180910390f35b6100ff6100fa36600461069e565b6102bd565b005b34801561010d57600080fd5b50600154610121906001600160a01b031681565b6040516001600160a01b0390911681526020016100e3565b34801561014557600080fd5b506101216101543660046106d1565b6002602052600090815260409020546001600160a01b031681565b34801561017b57600080fd5b506100ff610367565b34801561019057600080fd5b506100ff61019f3660046106ea565b61037b565b3480156101b057600080fd5b506000546001600160a01b0316610121565b3480156101ce57600080fd5b506100ff6101dd366004610705565b6103a5565b3480156101ee57600080fd5b5061020e6101fd366004610866565b63bc197c8160e01b95945050505050565b6040516001600160e01b031990911681526020016100e3565b34801561023357600080fd5b5061020e610242366004610910565b63f23a6e6160e01b95945050505050565b34801561025f57600080fd5b506100ff61026e3660046106ea565b61043f565b6100ff610281366004610705565b6104b8565b60006001600160e01b03198216630271189760e51b14806102b757506301ffc9a760e01b6001600160e01b03198316145b92915050565b6000828152600260205260409020546001600160a01b0384811691161461032b5760405162461bcd60e51b815260206004820152601a60248201527f43616c6c6572206973206e6f742077686974656c69737465642100000000000060448201526064015b60405180910390fd5b6040516001600160a01b0384169082156108fc029083906000818181858888f19350505050158015610361573d6000803e3d6000fd5b50505050565b61036f6105a7565b6103796000610601565b565b6103836105a7565b600180546001600160a01b0319166001600160a01b0392909216919091179055565b6001546001600160a01b031633146104115760405162461bcd60e51b815260206004820152602960248201527f43616c6c6572206973206e6f7420426f756e7479736361706520736d61727420604482015268636f6e74726163742160b81b6064820152608401610322565b600090815260026020526040902080546001600160a01b0319166001600160a01b0392909216919091179055565b6104476105a7565b6001600160a01b0381166104ac5760405162461bcd60e51b815260206004820152602660248201527f4f776e61626c653a206e6577206f776e657220697320746865207a65726f206160448201526564647265737360d01b6064820152608401610322565b6104b581610601565b50565b6000818152600260205260409020546001600160a01b038381169116146105215760405162461bcd60e51b815260206004820152601a60248201527f43616c6c6572206973206e6f742077686974656c6973746564210000000000006044820152606401610322565b60018054604051637921219560e11b81523060048201526001600160a01b03858116602483015260448201859052606482019390935260a06084820152600060a482015291169063f242432a9060c401600060405180830381600087803b15801561058b57600080fd5b505af115801561059f573d6000803e3d6000fd5b505050505050565b6000546001600160a01b031633146103795760405162461bcd60e51b815260206004820181905260248201527f4f776e61626c653a2063616c6c6572206973206e6f7420746865206f776e65726044820152606401610322565b600080546001600160a01b038381166001600160a01b0319831681178455604051919092169283917f8be0079c531659141344cd1fd0a4f28419497f9722a3daafe3b4186f6b6457e09190a35050565b60006020828403121561066357600080fd5b81356001600160e01b03198116811461067b57600080fd5b9392505050565b80356001600160a01b038116811461069957600080fd5b919050565b6000806000606084860312156106b357600080fd5b6106bc84610682565b95602085013595506040909401359392505050565b6000602082840312156106e357600080fd5b5035919050565b6000602082840312156106fc57600080fd5b61067b82610682565b6000806040838503121561071857600080fd5b61072183610682565b946020939093013593505050565b634e487b7160e01b600052604160045260246000fd5b604051601f8201601f1916810167ffffffffffffffff8111828210171561076e5761076e61072f565b604052919050565b600082601f83011261078757600080fd5b8135602067ffffffffffffffff8211156107a3576107a361072f565b8160051b6107b2828201610745565b92835284810182019282810190878511156107cc57600080fd5b83870192505b848310156107eb578235825291830191908301906107d2565b979650505050505050565b600082601f83011261080757600080fd5b813567ffffffffffffffff8111156108215761082161072f565b610834601f8201601f1916602001610745565b81815284602083860101111561084957600080fd5b816020850160208301376000918101602001919091529392505050565b600080600080600060a0868803121561087e57600080fd5b61088786610682565b945061089560208701610682565b9350604086013567ffffffffffffffff808211156108b257600080fd5b6108be89838a01610776565b945060608801359150808211156108d457600080fd5b6108e089838a01610776565b935060808801359150808211156108f657600080fd5b50610903888289016107f6565b9150509295509295909350565b600080600080600060a0868803121561092857600080fd5b61093186610682565b945061093f60208701610682565b93506040860135925060608601359150608086013567ffffffffffffffff81111561096957600080fd5b610903888289016107f656fea2646970667358221220911e1e5acf81e38b591df06a8590cb2f7adf94c701449da97e40c03cee44b23664736f6c634300080f0033",
    "linkReferences": {}
  },
  "methodIdentifiers": {
    "BountyscapeAddr()": "3ffd9180",
    "addressIdMapping(uint256)": "57ef63cb",
    "onERC1155BatchReceived(address,address,uint256[],uint256[],bytes)": "bc197c81",
    "onERC1155Received(address,address,uint256,uint256,bytes)": "f23a6e61",
    "owner()": "8da5cb5b",
    "renounceOwnership()": "715018a6",
    "setBountyscape(address)": "7524e83c",
    "supportsInterface(bytes4)": "01ffc9a7",
    "transferOwnership(address)": "f2fde38b",
    "whitelist(address,uint256)": "98fc55d8",
    "withdraw(address,uint256)": "f3fef3a3",
    "withdrawReward(address,uint256,uint256)": "3eb1fdc6"
  },
  "id": 22
}