{
  "abi": [
    {
      "inputs": [],
      "stateMutability": "nonpayable",
      "type": "constructor"
    },
    {
      "anonymous": false,
      "inputs": [
        {
          "indexed": true,
          "internalType": "address",
          "name": "previousOwner",
          "type": "address"
        },
        {
          "indexed": true,
          "internalType": "address",
          "name": "newOwner",
          "type": "address"
        }
      ],
      "name": "OwnershipTransferred",
      "type": "event"
    },
    {
      "inputs": [],
      "name": "BountyscapeAddr",
      "outputs": [
        {
          "internalType": "address",
          "name": "",
          "type": "address"
        }
      ],
      "stateMutability": "view",
      "type": "function"
    },
    {
      "inputs": [
        {
          "internalType": "uint256",
          "name": "",
          "type": "uint256"
        }
      ],
      "name": "addressIdMapping",
      "outputs": [
        {
          "internalType": "address",
          "name": "",
          "type": "address"
        }
      ],
      "stateMutability": "view",
      "type": "function"
    },
    {
      "inputs": [
        {
          "internalType": "address",
          "name": "",
          "type": "address"
        },
        {
          "internalType": "address",
          "name": "",
          "type": "address"
        },
        {
          "internalType": "uint256[]",
          "name": "",
          "type": "uint256[]"
        },
        {
          "internalType": "uint256[]",
          "name": "",
          "type": "uint256[]"
        },
        {
          "internalType": "bytes",
          "name": "",
          "type": "bytes"
        }
      ],
      "name": "onERC1155BatchReceived",
      "outputs": [
        {
          "internalType": "bytes4",
          "name": "",
          "type": "bytes4"
        }
      ],
      "stateMutability": "nonpayable",
      "type": "function"
    },
    {
      "inputs": [
        {
          "internalType": "address",
          "name": "",
          "type": "address"
        },
        {
          "internalType": "address",
          "name": "",
          "type": "address"
        },
        {
          "internalType": "uint256",
          "name": "",
          "type": "uint256"
        },
        {
          "internalType": "uint256",
          "name": "",
          "type": "uint256"
        },
        {
          "internalType": "bytes",
          "name": "",
          "type": "bytes"
        }
      ],
      "name": "onERC1155Received",
      "outputs": [
        {
          "internalType": "bytes4",
          "name": "",
          "type": "bytes4"
        }
      ],
      "stateMutability": "nonpayable",
      "type": "function"
    },
    {
      "inputs": [],
      "name": "owner",
      "outputs": [
        {
          "internalType": "address",
          "name": "",
          "type": "address"
        }
      ],
      "stateMutability": "view",
      "type": "function"
    },
    {
      "inputs": [],
      "name": "renounceOwnership",
      "outputs": [],
      "stateMutability": "nonpayable",
      "type": "function"
    },
    {
      "inputs": [
        {
          "internalType": "address",
          "name": "addr",
          "type": "address"
        }
      ],
      "name": "setBountyscape",
      "outputs": [],
      "stateMutability": "nonpayable",
      "type": "function"
    },
    {
      "inputs": [
        {
          "internalType": "bytes4",
          "name": "interfaceId",
          "type": "bytes4"
        }
      ],
      "name": "supportsInterface",
      "outputs": [
        {
          "internalType": "bool",
          "name": "",
          "type": "bool"
        }
      ],
      "stateMutability": "view",
      "type": "function"
    },
    {
      "inputs": [
        {
          "internalType": "address",
          "name": "newOwner",
          "type": "address"
        }
      ],
      "name": "transferOwnership",
      "outputs": [],
      "stateMutability": "nonpayable",
      "type": "function"
    },
    {
      "inputs": [
        {
          "internalType": "address",
          "name": "addr",
          "type": "address"
        },
        {
          "internalType": "uint256",
          "name": "tokenId",
          "type": "uint256"
        }
      ],
      "name": "whitelist",
      "outputs": [],
      "stateMutability": "nonpayable",
      "type": "function"
    },
    {
      "inputs": [
        {
          "internalType": "address",
          "name": "addr",
          "type": "address"
        },
        {
          "internalType": "uint256",
          "name": "id",
          "type": "uint256"
        }
      ],
      "name": "withdraw",
      "outputs": [],
      "stateMutability": "payable",
      "type": "function"
    },
    {
      "inputs": [
        {
          "internalType": "address",
          "name": "contractor",
          "type": "address"
        },
        {
          "internalType": "uint256",
          "name": "id",
          "type": "uint256"
        },
        {
          "internalType": "uint256",
          "name": "amount",
          "type": "uint256"
        }
      ],
      "name": "withdrawReward",
      "outputs": [],
      "stateMutability": "payable",
      "type": "function"
    }
  ],
  "bytecode": {
    "object": "0x608060405234801561001057600080fd5b5061001a33610028565b61002333610028565b610078565b600080546001600160a01b038381166001600160a01b0319831681178455604051919092169283917f8be0079c531659141344cd1fd0a4f28419497f9722a3daafe3b4186f6b6457e09190a35050565b610997806100876000396000f3fe6080604052600436106100a75760003560e01c806398fc55d81161006457806398fc55d814610197578063bc197c81146101b7578063dbb539b0146101fc578063f23a6e611461021c578063f2fde38b14610248578063f3fef3a31461026857600080fd5b806301ffc9a7146100ac5780633eb1fdc6146100e157806351f29cdc146100f657806357ef63cb14610116578063715018a6146101645780638da5cb5b14610179575b600080fd5b3480156100b857600080fd5b506100cc6100c736600461063d565b61027b565b60405190151581526020015b60405180910390f35b6100f46100ef36600461068a565b6102b2565b005b34801561010257600080fd5b506100f46101113660046106bd565b610359565b34801561012257600080fd5b5061014c6101313660046106d8565b6002602052600090815260409020546001600160a01b031681565b6040516001600160a01b0390911681526020016100d8565b34801561017057600080fd5b506100f4610383565b34801561018557600080fd5b506000546001600160a01b031661014c565b3480156101a357600080fd5b506100f46101b23660046106f1565b610397565b3480156101c357600080fd5b506101e36101d2366004610852565b63bc197c8160e01b95945050505050565b6040516001600160e01b031990911681526020016100d8565b34801561020857600080fd5b5060015461014c906001600160a01b031681565b34801561022857600080fd5b506101e36102373660046108fc565b63f23a6e6160e01b95945050505050565b34801561025457600080fd5b506100f46102633660046106bd565b61042e565b6100f46102763660046106f1565b6104a7565b60006001600160e01b03198216630271189760e51b14806102ac57506301ffc9a760e01b6001600160e01b03198316145b92915050565b6000828152600260205260409020546001600160a01b0316331461031d5760405162461bcd60e51b815260206004820152601a60248201527f43616c6c6572206973206e6f742077686974656c69737465642100000000000060448201526064015b60405180910390fd5b6040516001600160a01b0384169082156108fc029083906000818181858888f19350505050158015610353573d6000803e3d6000fd5b50505050565b610361610593565b600180546001600160a01b0319166001600160a01b0392909216919091179055565b61038b610593565b61039560006105ed565b565b6001546001600160a01b031633146104005760405162461bcd60e51b815260206004820152602660248201527f43616c6c6572206973206e6f7420536f6c746572696120736d61727420636f6e60448201526574726163742160d01b6064820152608401610314565b600090815260026020526040902080546001600160a01b0319166001600160a01b0392909216919091179055565b610436610593565b6001600160a01b03811661049b5760405162461bcd60e51b815260206004820152602660248201527f4f776e61626c653a206e6577206f776e657220697320746865207a65726f206160448201526564647265737360d01b6064820152608401610314565b6104a4816105ed565b50565b6000818152600260205260409020546001600160a01b0316331461050d5760405162461bcd60e51b815260206004820152601a60248201527f43616c6c6572206973206e6f742077686974656c6973746564210000000000006044820152606401610314565b60018054604051637921219560e11b81523060048201526001600160a01b03858116602483015260448201859052606482019390935260a06084820152600060a482015291169063f242432a9060c401600060405180830381600087803b15801561057757600080fd5b505af115801561058b573d6000803e3d6000fd5b505050505050565b6000546001600160a01b031633146103955760405162461bcd60e51b815260206004820181905260248201527f4f776e61626c653a2063616c6c6572206973206e6f7420746865206f776e65726044820152606401610314565b600080546001600160a01b038381166001600160a01b0319831681178455604051919092169283917f8be0079c531659141344cd1fd0a4f28419497f9722a3daafe3b4186f6b6457e09190a35050565b60006020828403121561064f57600080fd5b81356001600160e01b03198116811461066757600080fd5b9392505050565b80356001600160a01b038116811461068557600080fd5b919050565b60008060006060848603121561069f57600080fd5b6106a88461066e565b95602085013595506040909401359392505050565b6000602082840312156106cf57600080fd5b6106678261066e565b6000602082840312156106ea57600080fd5b5035919050565b6000806040838503121561070457600080fd5b61070d8361066e565b946020939093013593505050565b634e487b7160e01b600052604160045260246000fd5b604051601f8201601f1916810167ffffffffffffffff8111828210171561075a5761075a61071b565b604052919050565b600082601f83011261077357600080fd5b8135602067ffffffffffffffff82111561078f5761078f61071b565b8160051b61079e828201610731565b92835284810182019282810190878511156107b857600080fd5b83870192505b848310156107d7578235825291830191908301906107be565b979650505050505050565b600082601f8301126107f357600080fd5b813567ffffffffffffffff81111561080d5761080d61071b565b610820601f8201601f1916602001610731565b81815284602083860101111561083557600080fd5b816020850160208301376000918101602001919091529392505050565b600080600080600060a0868803121561086a57600080fd5b6108738661066e565b94506108816020870161066e565b9350604086013567ffffffffffffffff8082111561089e57600080fd5b6108aa89838a01610762565b945060608801359150808211156108c057600080fd5b6108cc89838a01610762565b935060808801359150808211156108e257600080fd5b506108ef888289016107e2565b9150509295509295909350565b600080600080600060a0868803121561091457600080fd5b61091d8661066e565b945061092b6020870161066e565b93506040860135925060608601359150608086013567ffffffffffffffff81111561095557600080fd5b6108ef888289016107e256fea2646970667358221220231a4b2ca9e940442e5eb8e3fefa363e8a7d4e99374b742ee243a678eff617ff64736f6c634300080f0033",
    "linkReferences": {}
  },
  "methodIdentifiers": {
    "BountyscapeAddr()": "dbb539b0",
    "addressIdMapping(uint256)": "57ef63cb",
    "onERC1155BatchReceived(address,address,uint256[],uint256[],bytes)": "bc197c81",
    "onERC1155Received(address,address,uint256,uint256,bytes)": "f23a6e61",
    "owner()": "8da5cb5b",
    "renounceOwnership()": "715018a6",
    "setBountyscape(address)": "51f29cdc",
    "supportsInterface(bytes4)": "01ffc9a7",
    "transferOwnership(address)": "f2fde38b",
    "whitelist(address,uint256)": "98fc55d8",
    "withdraw(address,uint256)": "f3fef3a3",
    "withdrawReward(address,uint256,uint256)": "3eb1fdc6"
  },
  "id": 16
}