{
  "abi": [
    {
      "inputs": [],
      "stateMutability": "nonpayable",
      "type": "constructor"
    },
    {
      "anonymous": false,
      "inputs": [
        {
          "indexed": true,
          "internalType": "address",
          "name": "previousOwner",
          "type": "address"
        },
        {
          "indexed": true,
          "internalType": "address",
          "name": "newOwner",
          "type": "address"
        }
      ],
      "name": "OwnershipTransferred",
      "type": "event"
    },
    {
      "inputs": [],
      "name": "BountyscapeAddr",
      "outputs": [
        {
          "internalType": "address",
          "name": "",
          "type": "address"
        }
      ],
      "stateMutability": "view",
      "type": "function"
    },
    {
      "inputs": [
        {
          "internalType": "uint256",
          "name": "",
          "type": "uint256"
        }
      ],
      "name": "addressIdMapping",
      "outputs": [
        {
          "internalType": "address",
          "name": "",
          "type": "address"
        }
      ],
      "stateMutability": "view",
      "type": "function"
    },
    {
      "inputs": [
        {
          "internalType": "address",
          "name": "",
          "type": "address"
        },
        {
          "internalType": "address",
          "name": "",
          "type": "address"
        },
        {
          "internalType": "uint256[]",
          "name": "",
          "type": "uint256[]"
        },
        {
          "internalType": "uint256[]",
          "name": "",
          "type": "uint256[]"
        },
        {
          "internalType": "bytes",
          "name": "",
          "type": "bytes"
        }
      ],
      "name": "onERC1155BatchReceived",
      "outputs": [
        {
          "internalType": "bytes4",
          "name": "",
          "type": "bytes4"
        }
      ],
      "stateMutability": "nonpayable",
      "type": "function"
    },
    {
      "inputs": [
        {
          "internalType": "address",
          "name": "",
          "type": "address"
        },
        {
          "internalType": "address",
          "name": "",
          "type": "address"
        },
        {
          "internalType": "uint256",
          "name": "",
          "type": "uint256"
        },
        {
          "internalType": "uint256",
          "name": "",
          "type": "uint256"
        },
        {
          "internalType": "bytes",
          "name": "",
          "type": "bytes"
        }
      ],
      "name": "onERC1155Received",
      "outputs": [
        {
          "internalType": "bytes4",
          "name": "",
          "type": "bytes4"
        }
      ],
      "stateMutability": "nonpayable",
      "type": "function"
    },
    {
      "inputs": [],
      "name": "owner",
      "outputs": [
        {
          "internalType": "address",
          "name": "",
          "type": "address"
        }
      ],
      "stateMutability": "view",
      "type": "function"
    },
    {
      "inputs": [],
      "name": "renounceOwnership",
      "outputs": [],
      "stateMutability": "nonpayable",
      "type": "function"
    },
    {
      "inputs": [
        {
          "internalType": "bytes4",
          "name": "interfaceId",
          "type": "bytes4"
        }
      ],
      "name": "supportsInterface",
      "outputs": [
        {
          "internalType": "bool",
          "name": "",
          "type": "bool"
        }
      ],
      "stateMutability": "view",
      "type": "function"
    },
    {
      "inputs": [
        {
          "internalType": "address",
          "name": "newOwner",
          "type": "address"
        }
      ],
      "name": "transferOwnership",
      "outputs": [],
      "stateMutability": "nonpayable",
      "type": "function"
    },
    {
      "inputs": [
        {
          "internalType": "address",
          "name": "addr",
          "type": "address"
        },
        {
          "internalType": "uint256",
          "name": "tokenId",
          "type": "uint256"
        }
      ],
      "name": "whitelist",
      "outputs": [],
      "stateMutability": "nonpayable",
      "type": "function"
    },
    {
      "inputs": [
        {
          "internalType": "address",
          "name": "addr",
          "type": "address"
        },
        {
          "internalType": "uint256",
          "name": "id",
          "type": "uint256"
        }
      ],
      "name": "withdraw",
      "outputs": [],
      "stateMutability": "payable",
      "type": "function"
    },
    {
      "inputs": [
        {
          "internalType": "address",
          "name": "contractor",
          "type": "address"
        },
        {
          "internalType": "uint256",
          "name": "id",
          "type": "uint256"
        },
        {
          "internalType": "uint256",
          "name": "amount",
          "type": "uint256"
        }
      ],
      "name": "withdrawReward",
      "outputs": [],
      "stateMutability": "payable",
      "type": "function"
    },
    {
      "stateMutability": "payable",
      "type": "receive"
    }
  ],
  "bytecode": {
    "object": "0x60a0604052738cb3c3931365d372ef6bd1297658d433d7a198e460805234801561002857600080fd5b5061003233610040565b61003b33610040565b610090565b600080546001600160a01b038381166001600160a01b0319831681178455604051919092169283917f8be0079c531659141344cd1fd0a4f28419497f9722a3daafe3b4186f6b6457e09190a35050565b6080516109a36100b9600039600081816101080152818161036f015261053f01526109a36000f3fe6080604052600436106100a05760003560e01c80638da5cb5b116100645780638da5cb5b1461018d57806398fc55d8146101ab578063bc197c81146101cb578063f23a6e6114610210578063f2fde38b1461023c578063f3fef3a31461025c57600080fd5b806301ffc9a7146100ac5780633eb1fdc6146100e15780633ffd9180146100f657806357ef63cb14610142578063715018a61461017857600080fd5b366100a757005b600080fd5b3480156100b857600080fd5b506100cc6100c7366004610649565b61026f565b60405190151581526020015b60405180910390f35b6100f46100ef366004610696565b6102a6565b005b34801561010257600080fd5b5061012a7f000000000000000000000000000000000000000000000000000000000000000081565b6040516001600160a01b0390911681526020016100d8565b34801561014e57600080fd5b5061012a61015d3660046106c9565b6001602052600090815260409020546001600160a01b031681565b34801561018457600080fd5b506100f4610350565b34801561019957600080fd5b506000546001600160a01b031661012a565b3480156101b757600080fd5b506100f46101c63660046106e2565b610364565b3480156101d757600080fd5b506101f76101e6366004610843565b63bc197c8160e01b95945050505050565b6040516001600160e01b031990911681526020016100d8565b34801561021c57600080fd5b506101f761022b3660046108ed565b63f23a6e6160e01b95945050505050565b34801561024857600080fd5b506100f4610257366004610952565b61041c565b6100f461026a3660046106e2565b610495565b60006001600160e01b03198216630271189760e51b14806102a057506301ffc9a760e01b6001600160e01b03198316145b92915050565b6000828152600160205260409020546001600160a01b038481169116146103145760405162461bcd60e51b815260206004820152601a60248201527f43616c6c6572206973206e6f742077686974656c69737465642100000000000060448201526064015b60405180910390fd5b6040516001600160a01b0384169082156108fc029083906000818181858888f1935050505015801561034a573d6000803e3d6000fd5b50505050565b61035861059f565b61036260006105f9565b565b336001600160a01b037f000000000000000000000000000000000000000000000000000000000000000016146103ee5760405162461bcd60e51b815260206004820152602960248201527f43616c6c6572206973206e6f7420426f756e7479736361706520736d61727420604482015268636f6e74726163742160b81b606482015260840161030b565b600090815260016020526040902080546001600160a01b0319166001600160a01b0392909216919091179055565b61042461059f565b6001600160a01b0381166104895760405162461bcd60e51b815260206004820152602660248201527f4f776e61626c653a206e6577206f776e657220697320746865207a65726f206160448201526564647265737360d01b606482015260840161030b565b610492816105f9565b50565b6000818152600160205260409020546001600160a01b038381169116146104fe5760405162461bcd60e51b815260206004820152601a60248201527f43616c6c6572206973206e6f742077686974656c697374656421000000000000604482015260640161030b565b604051637921219560e11b81523060048201526001600160a01b038381166024830152604482018390526001606483015260a06084830152600060a48301527f0000000000000000000000000000000000000000000000000000000000000000169063f242432a9060c401600060405180830381600087803b15801561058357600080fd5b505af1158015610597573d6000803e3d6000fd5b505050505050565b6000546001600160a01b031633146103625760405162461bcd60e51b815260206004820181905260248201527f4f776e61626c653a2063616c6c6572206973206e6f7420746865206f776e6572604482015260640161030b565b600080546001600160a01b038381166001600160a01b0319831681178455604051919092169283917f8be0079c531659141344cd1fd0a4f28419497f9722a3daafe3b4186f6b6457e09190a35050565b60006020828403121561065b57600080fd5b81356001600160e01b03198116811461067357600080fd5b9392505050565b80356001600160a01b038116811461069157600080fd5b919050565b6000806000606084860312156106ab57600080fd5b6106b48461067a565b95602085013595506040909401359392505050565b6000602082840312156106db57600080fd5b5035919050565b600080604083850312156106f557600080fd5b6106fe8361067a565b946020939093013593505050565b634e487b7160e01b600052604160045260246000fd5b604051601f8201601f1916810167ffffffffffffffff8111828210171561074b5761074b61070c565b604052919050565b600082601f83011261076457600080fd5b8135602067ffffffffffffffff8211156107805761078061070c565b8160051b61078f828201610722565b92835284810182019282810190878511156107a957600080fd5b83870192505b848310156107c8578235825291830191908301906107af565b979650505050505050565b600082601f8301126107e457600080fd5b813567ffffffffffffffff8111156107fe576107fe61070c565b610811601f8201601f1916602001610722565b81815284602083860101111561082657600080fd5b816020850160208301376000918101602001919091529392505050565b600080600080600060a0868803121561085b57600080fd5b6108648661067a565b94506108726020870161067a565b9350604086013567ffffffffffffffff8082111561088f57600080fd5b61089b89838a01610753565b945060608801359150808211156108b157600080fd5b6108bd89838a01610753565b935060808801359150808211156108d357600080fd5b506108e0888289016107d3565b9150509295509295909350565b600080600080600060a0868803121561090557600080fd5b61090e8661067a565b945061091c6020870161067a565b93506040860135925060608601359150608086013567ffffffffffffffff81111561094657600080fd5b6108e0888289016107d3565b60006020828403121561096457600080fd5b6106738261067a56fea2646970667358221220051373f19a0eb691500eb9efd3d71e7f92faf215e6a6d5f5405eb0020040c12b64736f6c634300080f0033",
    "linkReferences": {}
  },
  "methodIdentifiers": {
    "BountyscapeAddr()": "3ffd9180",
    "addressIdMapping(uint256)": "57ef63cb",
    "onERC1155BatchReceived(address,address,uint256[],uint256[],bytes)": "bc197c81",
    "onERC1155Received(address,address,uint256,uint256,bytes)": "f23a6e61",
    "owner()": "8da5cb5b",
    "renounceOwnership()": "715018a6",
    "supportsInterface(bytes4)": "01ffc9a7",
    "transferOwnership(address)": "f2fde38b",
    "whitelist(address,uint256)": "98fc55d8",
    "withdraw(address,uint256)": "f3fef3a3",
    "withdrawReward(address,uint256,uint256)": "3eb1fdc6"
  },
  "id": 24
}